{"abi":[{"type":"constructor","inputs":[],"stateMutability":"nonpayable"},{"type":"function","name":"addCandidate","inputs":[{"name":"_electionId","type":"uint256","internalType":"uint256"},{"name":"_name","type":"string","internalType":"string"},{"name":"_position","type":"string","internalType":"string"}],"outputs":[],"stateMutability":"nonpayable"},{"type":"function","name":"admin","inputs":[],"outputs":[{"name":"","type":"address","internalType":"address"}],"stateMutability":"view"},{"type":"function","name":"candidates","inputs":[{"name":"","type":"uint256","internalType":"uint256"},{"name":"","type":"uint256","internalType":"uint256"}],"outputs":[{"name":"id","type":"uint256","internalType":"uint256"},{"name":"name","type":"string","internalType":"string"},{"name":"position","type":"string","internalType":"string"},{"name":"voteCount","type":"uint256","internalType":"uint256"}],"stateMutability":"view"},{"type":"function","name":"castVote","inputs":[{"name":"_electionId","type":"uint256","internalType":"uint256"},{"name":"_candidateId","type":"uint256","internalType":"uint256"}],"outputs":[],"stateMutability":"nonpayable"},{"type":"function","name":"createElection","inputs":[{"name":"_title","type":"string","internalType":"string"},{"name":"_description","type":"string","internalType":"string"},{"name":"_startTime","type":"uint256","internalType":"uint256"},{"name":"_endTime","type":"uint256","internalType":"uint256"}],"outputs":[],"stateMutability":"nonpayable"},{"type":"function","name":"electionCount","inputs":[],"outputs":[{"name":"","type":"uint256","internalType":"uint256"}],"stateMutability":"view"},{"type":"function","name":"elections","inputs":[{"name":"","type":"uint256","internalType":"uint256"}],"outputs":[{"name":"id","type":"uint256","internalType":"uint256"},{"name":"title","type":"string","internalType":"string"},{"name":"description","type":"string","internalType":"string"},{"name":"startTime","type":"uint256","internalType":"uint256"},{"name":"endTime","type":"uint256","internalType":"uint256"},{"name":"exists","type":"bool","internalType":"bool"},{"name":"candidateCount","type":"uint256","internalType":"uint256"},{"name":"voterCount","type":"uint256","internalType":"uint256"}],"stateMutability":"view"},{"type":"function","name":"getCandidates","inputs":[{"name":"_electionId","type":"uint256","internalType":"uint256"}],"outputs":[{"name":"","type":"tuple[]","internalType":"struct Voting.Candidate[]","components":[{"name":"id","type":"uint256","internalType":"uint256"},{"name":"name","type":"string","internalType":"string"},{"name":"position","type":"string","internalType":"string"},{"name":"voteCount","type":"uint256","internalType":"uint256"}]}],"stateMutability":"view"},{"type":"function","name":"getElection","inputs":[{"name":"_electionId","type":"uint256","internalType":"uint256"}],"outputs":[{"name":"","type":"tuple","internalType":"struct Voting.Election","components":[{"name":"id","type":"uint256","internalType":"uint256"},{"name":"title","type":"string","internalType":"string"},{"name":"description","type":"string","internalType":"string"},{"name":"startTime","type":"uint256","internalType":"uint256"},{"name":"endTime","type":"uint256","internalType":"uint256"},{"name":"exists","type":"bool","internalType":"bool"},{"name":"candidateCount","type":"uint256","internalType":"uint256"},{"name":"voterCount","type":"uint256","internalType":"uint256"}]}],"stateMutability":"view"},{"type":"function","name":"getElectionCount","inputs":[],"outputs":[{"name":"","type":"uint256","internalType":"uint256"}],"stateMutability":"view"},{"type":"function","name":"getVoterStatus","inputs":[{"name":"_electionId","type":"uint256","internalType":"uint256"},{"name":"_voter","type":"address","internalType":"address"}],"outputs":[{"name":"isRegistered","type":"bool","internalType":"bool"},{"name":"hasVoted","type":"bool","internalType":"bool"},{"name":"votedCandidateId","type":"uint256","internalType":"uint256"},{"name":"matricHash","type":"bytes32","internalType":"bytes32"}],"stateMutability":"view"},{"type":"function","name":"getWinner","inputs":[{"name":"_electionId","type":"uint256","internalType":"uint256"}],"outputs":[{"name":"winner","type":"tuple","internalType":"struct Voting.Candidate","components":[{"name":"id","type":"uint256","internalType":"uint256"},{"name":"name","type":"string","internalType":"string"},{"name":"position","type":"string","internalType":"string"},{"name":"voteCount","type":"uint256","internalType":"uint256"}]}],"stateMutability":"view"},{"type":"function","name":"isElectionActive","inputs":[{"name":"_electionId","type":"uint256","internalType":"uint256"}],"outputs":[{"name":"","type":"bool","internalType":"bool"}],"stateMutability":"view"},{"type":"function","name":"isMatricRegistered","inputs":[{"name":"_electionId","type":"uint256","internalType":"uint256"},{"name":"_matricNumber","type":"string","internalType":"string"}],"outputs":[{"name":"","type":"bool","internalType":"bool"}],"stateMutability":"view"},{"type":"function","name":"matricRegistered","inputs":[{"name":"","type":"uint256","internalType":"uint256"},{"name":"","type":"bytes32","internalType":"bytes32"}],"outputs":[{"name":"","type":"bool","internalType":"bool"}],"stateMutability":"view"},{"type":"function","name":"registerVoter","inputs":[{"name":"_electionId","type":"uint256","internalType":"uint256"},{"name":"_voter","type":"address","internalType":"address"},{"name":"_matricNumber","type":"string","internalType":"string"}],"outputs":[],"stateMutability":"nonpayable"},{"type":"function","name":"voters","inputs":[{"name":"","type":"uint256","internalType":"uint256"},{"name":"","type":"address","internalType":"address"}],"outputs":[{"name":"isRegistered","type":"bool","internalType":"bool"},{"name":"hasVoted","type":"bool","internalType":"bool"},{"name":"votedCandidateId","type":"uint256","internalType":"uint256"},{"name":"matricHash","type":"bytes32","internalType":"bytes32"}],"stateMutability":"view"},{"type":"event","name":"CandidateAdded","inputs":[{"name":"electionId","type":"uint256","indexed":true,"internalType":"uint256"},{"name":"candidateId","type":"uint256","indexed":true,"internalType":"uint256"},{"name":"name","type":"string","indexed":false,"internalType":"string"},{"name":"position","type":"string","indexed":false,"internalType":"string"}],"anonymous":false},{"type":"event","name":"ElectionCreated","inputs":[{"name":"electionId","type":"uint256","indexed":true,"internalType":"uint256"},{"name":"title","type":"string","indexed":false,"internalType":"string"},{"name":"startTime","type":"uint256","indexed":false,"internalType":"uint256"},{"name":"endTime","type":"uint256","indexed":false,"internalType":"uint256"}],"anonymous":false},{"type":"event","name":"VoteCast","inputs":[{"name":"electionId","type":"uint256","indexed":true,"internalType":"uint256"},{"name":"candidateId","type":"uint256","indexed":true,"internalType":"uint256"},{"name":"voter","type":"address","indexed":true,"internalType":"address"}],"anonymous":false},{"type":"event","name":"VoterRegistered","inputs":[{"name":"electionId","type":"uint256","indexed":true,"internalType":"uint256"},{"name":"voter","type":"address","indexed":true,"internalType":"address"},{"name":"matricHash","type":"bytes32","indexed":false,"internalType":"bytes32"}],"anonymous":false}],"bytecode":{"object":"0x6080604052348015600e575f5ffd5b50335f5f6101000a81548173ffffffffffffffffffffffffffffffffffffffff021916908373ffffffffffffffffffffffffffffffffffffffff1602179055506132958061005b5f395ff3fe608060405234801561000f575f5ffd5b5060043610610109575f3560e01c8063848cc37e116100a05780639e3190631161006f5780639e319063146102fa578063a24d592f1461032d578063b98ea9d71461035d578063e6c62efc1461038d578063f851a440146103a957610109565b8063848cc37e1461025d578063942f56bd14610279578063997d2830146102ac5780639d710777146102ca57610109565b80635e6fef01116100dc5780635e6fef01146101a75780636ee17f6f146101de5780637ad36e841461020e5780637de142421461022a57610109565b8063213785a01461010d5780632c0a3f891461012b5780633e39a7a5146101475780634129b2c914610177575b5f5ffd5b6101156103c7565b6040516101229190611d27565b60405180910390f35b61014560048036038101906101409190611d7b565b6103d0565b005b610161600480360381019061015c9190611db9565b6106da565b60405161016e9190611f85565b60405180910390f35b610191600480360381019061018c9190611db9565b610960565b60405161019e919061200c565b60405180910390f35b6101c160048036038101906101bc9190611db9565b610c62565b6040516101d598979695949392919061208e565b60405180910390f35b6101f860048036038101906101f39190611db9565b610dbe565b6040516102059190612118565b60405180910390f35b6102286004803603810190610223919061225d565b610e60565b005b610244600480360381019061023f9190611d7b565b61109d565b60405161025494939291906122f9565b60405180910390f35b610277600480360381019061027291906123a4565b6111e0565b005b610293600480360381019061028e9190612410565b6115d3565b6040516102a39493929190612466565b60405180910390f35b6102b46116ff565b6040516102c19190611d27565b60405180910390f35b6102e460048036038101906102df9190611db9565b611705565b6040516102f1919061256c565b60405180910390f35b610314600480360381019061030f9190612410565b6118fe565b6040516103249493929190612466565b60405180910390f35b6103476004803603810190610342919061258c565b61194d565b6040516103549190612118565b60405180910390f35b61037760048036038101906103729190612610565b611a10565b6040516103849190612118565b60405180910390f35b6103a760048036038101906103a2919061264e565b611a3a565b005b6103b1611c84565b6040516103be91906126e5565b60405180910390f35b5f600154905090565b8160025f8281526020019081526020015f206005015f9054906101000a900460ff16610431576040517f08c379a000000000000000000000000000000000000000000000000000000000815260040161042890612748565b60405180910390fd5b8260025f8281526020019081526020015f2060030154421015610489576040517f08c379a0000000000000000000000000000000000000000000000000000000008152600401610480906127b0565b60405180910390fd5b60025f8281526020019081526020015f20600401544211156104e0576040517f08c379a00000000000000000000000000000000000000000000000000000000081526004016104d790612818565b60405180910390fd5b5f60045f8681526020019081526020015f205f3373ffffffffffffffffffffffffffffffffffffffff1673ffffffffffffffffffffffffffffffffffffffff1681526020019081526020015f209050805f015f9054906101000a900460ff1661057e576040517f08c379a0000000000000000000000000000000000000000000000000000000008152600401610575906128a6565b60405180910390fd5b805f0160019054906101000a900460ff16156105cf576040517f08c379a00000000000000000000000000000000000000000000000000000000081526004016105c69061290e565b60405180910390fd5b5f841180156105f2575060025f8681526020019081526020015f20600601548411155b610631576040517f08c379a000000000000000000000000000000000000000000000000000000000815260040161062890612976565b60405180910390fd5b6001815f0160016101000a81548160ff02191690831515021790555083816001018190555060035f8681526020019081526020015f205f8581526020019081526020015f206003015f815480929190610689906129c1565b91905055503373ffffffffffffffffffffffffffffffffffffffff1684867f7fe1d4e6b34e228b5dc059fcdc037c71b216fb2417f47c171e505144a5e4f5fc60405160405180910390a45050505050565b60608160025f8281526020019081526020015f206005015f9054906101000a900460ff1661073d576040517f08c379a000000000000000000000000000000000000000000000000000000000815260040161073490612748565b60405180910390fd5b5f60025f8581526020019081526020015f206006015490505f8167ffffffffffffffff8111156107705761076f612139565b5b6040519080825280602002602001820160405280156107a957816020015b610796611ca8565b81526020019060019003908161078e5790505b5090505f600190505b8281116109545760035f8781526020019081526020015f205f8281526020019081526020015f206040518060800160405290815f82015481526020016001820180546107fd90612a35565b80601f016020809104026020016040519081016040528092919081815260200182805461082990612a35565b80156108745780601f1061084b57610100808354040283529160200191610874565b820191905f5260205f20905b81548152906001019060200180831161085757829003601f168201915b5050505050815260200160028201805461088d90612a35565b80601f01602080910402602001604051908101604052809291908181526020018280546108b990612a35565b80156109045780601f106108db57610100808354040283529160200191610904565b820191905f5260205f20905b8154815290600101906020018083116108e757829003601f168201915b50505050508152602001600382015481525050826001836109259190612a65565b8151811061093657610935612a98565b5b6020026020010181905250808061094c906129c1565b9150506107b2565b50809350505050919050565b610968611ca8565b8160025f8281526020019081526020015f206005015f9054906101000a900460ff166109c9576040517f08c379a00000000000000000000000000000000000000000000000000000000081526004016109c090612748565b60405180910390fd5b8260025f8281526020019081526020015f20600401544211610a20576040517f08c379a0000000000000000000000000000000000000000000000000000000008152600401610a1790612b0f565b60405180910390fd5b5f5f90505f5f90505f60025f8881526020019081526020015f206006015490505f600190505b818111610ab5578360035f8a81526020019081526020015f205f8381526020019081526020015f20600301541115610aa25760035f8981526020019081526020015f205f8281526020019081526020015f206003015493508092505b8080610aad906129c1565b915050610a46565b505f8203610af8576040517f08c379a0000000000000000000000000000000000000000000000000000000008152600401610aef90612b77565b60405180910390fd5b60035f8881526020019081526020015f205f8381526020019081526020015f206040518060800160405290815f8201548152602001600182018054610b3c90612a35565b80601f0160208091040260200160405190810160405280929190818152602001828054610b6890612a35565b8015610bb35780601f10610b8a57610100808354040283529160200191610bb3565b820191905f5260205f20905b815481529060010190602001808311610b9657829003601f168201915b50505050508152602001600282018054610bcc90612a35565b80601f0160208091040260200160405190810160405280929190818152602001828054610bf890612a35565b8015610c435780601f10610c1a57610100808354040283529160200191610c43565b820191905f5260205f20905b815481529060010190602001808311610c2657829003601f168201915b5050505050815260200160038201548152505095505050505050919050565b6002602052805f5260405f205f91509050805f015490806001018054610c8790612a35565b80601f0160208091040260200160405190810160405280929190818152602001828054610cb390612a35565b8015610cfe5780601f10610cd557610100808354040283529160200191610cfe565b820191905f5260205f20905b815481529060010190602001808311610ce157829003601f168201915b505050505090806002018054610d1390612a35565b80601f0160208091040260200160405190810160405280929190818152602001828054610d3f90612a35565b8015610d8a5780601f10610d6157610100808354040283529160200191610d8a565b820191905f5260205f20905b815481529060010190602001808311610d6d57829003601f168201915b505050505090806003015490806004015490806005015f9054906101000a900460ff16908060060154908060070154905088565b5f8160025f8281526020019081526020015f206005015f9054906101000a900460ff16610e20576040517f08c379a0000000000000000000000000000000000000000000000000000000008152600401610e1790612748565b60405180910390fd5b60025f8481526020019081526020015f20600301544210158015610e58575060025f8481526020019081526020015f20600401544211155b915050919050565b5f5f9054906101000a900473ffffffffffffffffffffffffffffffffffffffff1673ffffffffffffffffffffffffffffffffffffffff163373ffffffffffffffffffffffffffffffffffffffff1614610eee576040517f08c379a0000000000000000000000000000000000000000000000000000000008152600401610ee590612c05565b60405180910390fd5b808210610f30576040517f08c379a0000000000000000000000000000000000000000000000000000000008152600401610f2790612c93565b60405180910390fd5b428111610f72576040517f08c379a0000000000000000000000000000000000000000000000000000000008152600401610f6990612cfb565b60405180910390fd5b60015f815480929190610f84906129c1565b919050555060405180610100016040528060015481526020018581526020018481526020018381526020018281526020016001151581526020015f81526020015f81525060025f60015481526020019081526020015f205f820151815f01556020820151816001019081610ff89190612eca565b50604082015181600201908161100e9190612eca565b50606082015181600301556080820151816004015560a0820151816005015f6101000a81548160ff02191690831515021790555060c0820151816006015560e082015181600701559050506001547fe7a0aae5d733e07e246dea86213a1ac1b0aa8554bde889bb75c12752f44e53d985848460405161108f93929190612f99565b60405180910390a250505050565b6003602052815f5260405f20602052805f5260405f205f9150915050805f0154908060010180546110cd90612a35565b80601f01602080910402602001604051908101604052809291908181526020018280546110f990612a35565b80156111445780601f1061111b57610100808354040283529160200191611144565b820191905f5260205f20905b81548152906001019060200180831161112757829003601f168201915b50505050509080600201805461115990612a35565b80601f016020809104026020016040519081016040528092919081815260200182805461118590612a35565b80156111d05780601f106111a7576101008083540402835291602001916111d0565b820191905f5260205f20905b8154815290600101906020018083116111b357829003601f168201915b5050505050908060030154905084565b5f5f9054906101000a900473ffffffffffffffffffffffffffffffffffffffff1673ffffffffffffffffffffffffffffffffffffffff163373ffffffffffffffffffffffffffffffffffffffff161461126e576040517f08c379a000000000000000000000000000000000000000000000000000000000815260040161126590612c05565b60405180910390fd5b8260025f8281526020019081526020015f206005015f9054906101000a900460ff166112cf576040517f08c379a00000000000000000000000000000000000000000000000000000000081526004016112c690612748565b60405180910390fd5b60025f8581526020019081526020015f20600401544210611325576040517f08c379a000000000000000000000000000000000000000000000000000000000815260040161131c9061301f565b60405180910390fd5b60045f8581526020019081526020015f205f8473ffffffffffffffffffffffffffffffffffffffff1673ffffffffffffffffffffffffffffffffffffffff1681526020019081526020015f205f015f9054906101000a900460ff16156113c0576040517f08c379a00000000000000000000000000000000000000000000000000000000081526004016113b790613087565b60405180910390fd5b5f826040516020016113d291906130df565b60405160208183030381529060405280519060200120905060055f8681526020019081526020015f205f8281526020019081526020015f205f9054906101000a900460ff1615611457576040517f08c379a000000000000000000000000000000000000000000000000000000000815260040161144e90613165565b60405180910390fd5b60405180608001604052806001151581526020015f151581526020015f81526020018281525060045f8781526020019081526020015f205f8673ffffffffffffffffffffffffffffffffffffffff1673ffffffffffffffffffffffffffffffffffffffff1681526020019081526020015f205f820151815f015f6101000a81548160ff0219169083151502179055506020820151815f0160016101000a81548160ff0219169083151502179055506040820151816001015560608201518160020155905050600160055f8781526020019081526020015f205f8381526020019081526020015f205f6101000a81548160ff02191690831515021790555060025f8681526020019081526020015f206007015f815480929190611578906129c1565b91905055508373ffffffffffffffffffffffffffffffffffffffff16857fac80ab55aa31256e858d3769a6d44ecaa5b6fe5b9e301db4ffe6cb934811db96836040516115c49190613183565b60405180910390a35050505050565b5f5f5f5f8560025f8281526020019081526020015f206005015f9054906101000a900460ff16611638576040517f08c379a000000000000000000000000000000000000000000000000000000000815260040161162f90612748565b60405180910390fd5b5f60045f8981526020019081526020015f205f8873ffffffffffffffffffffffffffffffffffffffff1673ffffffffffffffffffffffffffffffffffffffff1681526020019081526020015f206040518060800160405290815f82015f9054906101000a900460ff161515151581526020015f820160019054906101000a900460ff16151515158152602001600182015481526020016002820154815250509050805f01518160200151826040015183606001519550955095509550505092959194509250565b60015481565b61170d611cce565b8160025f8281526020019081526020015f206005015f9054906101000a900460ff1661176e576040517f08c379a000000000000000000000000000000000000000000000000000000000815260040161176590612748565b60405180910390fd5b60025f8481526020019081526020015f20604051806101000160405290815f82015481526020016001820180546117a490612a35565b80601f01602080910402602001604051908101604052809291908181526020018280546117d090612a35565b801561181b5780601f106117f25761010080835404028352916020019161181b565b820191905f5260205f20905b8154815290600101906020018083116117fe57829003601f168201915b5050505050815260200160028201805461183490612a35565b80601f016020809104026020016040519081016040528092919081815260200182805461186090612a35565b80156118ab5780601f10611882576101008083540402835291602001916118ab565b820191905f5260205f20905b81548152906001019060200180831161188e57829003601f168201915b505050505081526020016003820154815260200160048201548152602001600582015f9054906101000a900460ff1615151515815260200160068201548152602001600782015481525050915050919050565b6004602052815f5260405f20602052805f5260405f205f9150915050805f015f9054906101000a900460ff1690805f0160019054906101000a900460ff16908060010154908060020154905084565b5f8260025f8281526020019081526020015f206005015f9054906101000a900460ff166119af576040517f08c379a00000000000000000000000000000000000000000000000000000000081526004016119a690612748565b60405180910390fd5b5f836040516020016119c191906130df565b60405160208183030381529060405280519060200120905060055f8681526020019081526020015f205f8281526020019081526020015f205f9054906101000a900460ff169250505092915050565b6005602052815f5260405f20602052805f5260405f205f915091509054906101000a900460ff1681565b5f5f9054906101000a900473ffffffffffffffffffffffffffffffffffffffff1673ffffffffffffffffffffffffffffffffffffffff163373ffffffffffffffffffffffffffffffffffffffff1614611ac8576040517f08c379a0000000000000000000000000000000000000000000000000000000008152600401611abf90612c05565b60405180910390fd5b8260025f8281526020019081526020015f206005015f9054906101000a900460ff16611b29576040517f08c379a0000000000000000000000000000000000000000000000000000000008152600401611b2090612748565b60405180910390fd5b60025f8581526020019081526020015f20600301544210611b7f576040517f08c379a0000000000000000000000000000000000000000000000000000000008152600401611b769061320c565b60405180910390fd5b60025f8581526020019081526020015f206006015f815480929190611ba3906129c1565b91905055505f60025f8681526020019081526020015f2060060154905060405180608001604052808281526020018581526020018481526020015f81525060035f8781526020019081526020015f205f8381526020019081526020015f205f820151815f01556020820151816001019081611c1e9190612eca565b506040820151816002019081611c349190612eca565b506060820151816003015590505080857f503cfceb0fb2178c5fb47ff394c816e4075abc8066c3dcb16d08a76847ee6e168686604051611c7592919061322a565b60405180910390a35050505050565b5f5f9054906101000a900473ffffffffffffffffffffffffffffffffffffffff1681565b60405180608001604052805f815260200160608152602001606081526020015f81525090565b6040518061010001604052805f815260200160608152602001606081526020015f81526020015f81526020015f151581526020015f81526020015f81525090565b5f819050919050565b611d2181611d0f565b82525050565b5f602082019050611d3a5f830184611d18565b92915050565b5f604051905090565b5f5ffd5b5f5ffd5b611d5a81611d0f565b8114611d64575f5ffd5b50565b5f81359050611d7581611d51565b92915050565b5f5f60408385031215611d9157611d90611d49565b5b5f611d9e85828601611d67565b9250506020611daf85828601611d67565b9150509250929050565b5f60208284031215611dce57611dcd611d49565b5b5f611ddb84828501611d67565b91505092915050565b5f81519050919050565b5f82825260208201905092915050565b5f819050602082019050919050565b611e1681611d0f565b82525050565b5f81519050919050565b5f82825260208201905092915050565b8281835e5f83830152505050565b5f601f19601f8301169050919050565b5f611e5e82611e1c565b611e688185611e26565b9350611e78818560208601611e36565b611e8181611e44565b840191505092915050565b5f608083015f830151611ea15f860182611e0d565b5060208301518482036020860152611eb98282611e54565b91505060408301518482036040860152611ed38282611e54565b9150506060830151611ee86060860182611e0d565b508091505092915050565b5f611efe8383611e8c565b905092915050565b5f602082019050919050565b5f611f1c82611de4565b611f268185611dee565b935083602082028501611f3885611dfe565b805f5b85811015611f735784840389528151611f548582611ef3565b9450611f5f83611f06565b925060208a01995050600181019050611f3b565b50829750879550505050505092915050565b5f6020820190508181035f830152611f9d8184611f12565b905092915050565b5f608083015f830151611fba5f860182611e0d565b5060208301518482036020860152611fd28282611e54565b91505060408301518482036040860152611fec8282611e54565b91505060608301516120016060860182611e0d565b508091505092915050565b5f6020820190508181035f8301526120248184611fa5565b905092915050565b5f82825260208201905092915050565b5f61204682611e1c565b612050818561202c565b9350612060818560208601611e36565b61206981611e44565b840191505092915050565b5f8115159050919050565b61208881612074565b82525050565b5f610100820190506120a25f83018b611d18565b81810360208301526120b4818a61203c565b905081810360408301526120c8818961203c565b90506120d76060830188611d18565b6120e46080830187611d18565b6120f160a083018661207f565b6120fe60c0830185611d18565b61210b60e0830184611d18565b9998505050505050505050565b5f60208201905061212b5f83018461207f565b92915050565b5f5ffd5b5f5ffd5b7f4e487b71000000000000000000000000000000000000000000000000000000005f52604160045260245ffd5b61216f82611e44565b810181811067ffffffffffffffff8211171561218e5761218d612139565b5b80604052505050565b5f6121a0611d40565b90506121ac8282612166565b919050565b5f67ffffffffffffffff8211156121cb576121ca612139565b5b6121d482611e44565b9050602081019050919050565b828183375f83830152505050565b5f6122016121fc846121b1565b612197565b90508281526020810184848401111561221d5761221c612135565b5b6122288482856121e1565b509392505050565b5f82601f83011261224457612243612131565b5b81356122548482602086016121ef565b91505092915050565b5f5f5f5f6080858703121561227557612274611d49565b5b5f85013567ffffffffffffffff81111561229257612291611d4d565b5b61229e87828801612230565b945050602085013567ffffffffffffffff8111156122bf576122be611d4d565b5b6122cb87828801612230565b93505060406122dc87828801611d67565b92505060606122ed87828801611d67565b91505092959194509250565b5f60808201905061230c5f830187611d18565b818103602083015261231e818661203c565b90508181036040830152612332818561203c565b90506123416060830184611d18565b95945050505050565b5f73ffffffffffffffffffffffffffffffffffffffff82169050919050565b5f6123738261234a565b9050919050565b61238381612369565b811461238d575f5ffd5b50565b5f8135905061239e8161237a565b92915050565b5f5f5f606084860312156123bb576123ba611d49565b5b5f6123c886828701611d67565b93505060206123d986828701612390565b925050604084013567ffffffffffffffff8111156123fa576123f9611d4d565b5b61240686828701612230565b9150509250925092565b5f5f6040838503121561242657612425611d49565b5b5f61243385828601611d67565b925050602061244485828601612390565b9150509250929050565b5f819050919050565b6124608161244e565b82525050565b5f6080820190506124795f83018761207f565b612486602083018661207f565b6124936040830185611d18565b6124a06060830184612457565b95945050505050565b6124b281612074565b82525050565b5f61010083015f8301516124ce5f860182611e0d565b50602083015184820360208601526124e68282611e54565b915050604083015184820360408601526125008282611e54565b91505060608301516125156060860182611e0d565b5060808301516125286080860182611e0d565b5060a083015161253b60a08601826124a9565b5060c083015161254e60c0860182611e0d565b5060e083015161256160e0860182611e0d565b508091505092915050565b5f6020820190508181035f83015261258481846124b8565b905092915050565b5f5f604083850312156125a2576125a1611d49565b5b5f6125af85828601611d67565b925050602083013567ffffffffffffffff8111156125d0576125cf611d4d565b5b6125dc85828601612230565b9150509250929050565b6125ef8161244e565b81146125f9575f5ffd5b50565b5f8135905061260a816125e6565b92915050565b5f5f6040838503121561262657612625611d49565b5b5f61263385828601611d67565b9250506020612644858286016125fc565b9150509250929050565b5f5f5f6060848603121561266557612664611d49565b5b5f61267286828701611d67565b935050602084013567ffffffffffffffff81111561269357612692611d4d565b5b61269f86828701612230565b925050604084013567ffffffffffffffff8111156126c0576126bf611d4d565b5b6126cc86828701612230565b9150509250925092565b6126df81612369565b82525050565b5f6020820190506126f85f8301846126d6565b92915050565b7f456c656374696f6e20646f6573206e6f742065786973740000000000000000005f82015250565b5f61273260178361202c565b915061273d826126fe565b602082019050919050565b5f6020820190508181035f83015261275f81612726565b9050919050565b7f456c656374696f6e20686173206e6f74207374617274656420796574000000005f82015250565b5f61279a601c8361202c565b91506127a582612766565b602082019050919050565b5f6020820190508181035f8301526127c78161278e565b9050919050565b7f456c656374696f6e2068617320656e64656400000000000000000000000000005f82015250565b5f61280260128361202c565b915061280d826127ce565b602082019050919050565b5f6020820190508181035f83015261282f816127f6565b9050919050565b7f596f7520617265206e6f74207265676973746572656420746f20766f746520695f8201527f6e207468697320656c656374696f6e0000000000000000000000000000000000602082015250565b5f612890602f8361202c565b915061289b82612836565b604082019050919050565b5f6020820190508181035f8301526128bd81612884565b9050919050565b7f596f75206861766520616c726561647920766f746564000000000000000000005f82015250565b5f6128f860168361202c565b9150612903826128c4565b602082019050919050565b5f6020820190508181035f830152612925816128ec565b9050919050565b7f496e76616c69642063616e6469646174650000000000000000000000000000005f82015250565b5f61296060118361202c565b915061296b8261292c565b602082019050919050565b5f6020820190508181035f83015261298d81612954565b9050919050565b7f4e487b71000000000000000000000000000000000000000000000000000000005f52601160045260245ffd5b5f6129cb82611d0f565b91507fffffffffffffffffffffffffffffffffffffffffffffffffffffffffffffffff82036129fd576129fc612994565b5b600182019050919050565b7f4e487b71000000000000000000000000000000000000000000000000000000005f52602260045260245ffd5b5f6002820490506001821680612a4c57607f821691505b602082108103612a5f57612a5e612a08565b5b50919050565b5f612a6f82611d0f565b9150612a7a83611d0f565b9250828203905081811115612a9257612a91612994565b5b92915050565b7f4e487b71000000000000000000000000000000000000000000000000000000005f52603260045260245ffd5b7f456c656374696f6e206973207374696c6c206f6e676f696e67000000000000005f82015250565b5f612af960198361202c565b9150612b0482612ac5565b602082019050919050565b5f6020820190508181035f830152612b2681612aed565b9050919050565b7f4e6f20766f7465732068617665206265656e20636173740000000000000000005f82015250565b5f612b6160178361202c565b9150612b6c82612b2d565b602082019050919050565b5f6020820190508181035f830152612b8e81612b55565b9050919050565b7f4f6e6c792061646d696e2063616e20706572666f726d207468697320616374695f8201527f6f6e000000000000000000000000000000000000000000000000000000000000602082015250565b5f612bef60228361202c565b9150612bfa82612b95565b604082019050919050565b5f6020820190508181035f830152612c1c81612be3565b9050919050565b7f53746172742074696d65206d757374206265206265666f726520656e642074695f8201527f6d65000000000000000000000000000000000000000000000000000000000000602082015250565b5f612c7d60228361202c565b9150612c8882612c23565b604082019050919050565b5f6020820190508181035f830152612caa81612c71565b9050919050565b7f456e642074696d65206d75737420626520696e207468652066757475726500005f82015250565b5f612ce5601e8361202c565b9150612cf082612cb1565b602082019050919050565b5f6020820190508181035f830152612d1281612cd9565b9050919050565b5f819050815f5260205f209050919050565b5f6020601f8301049050919050565b5f82821b905092915050565b5f60088302612d757fffffffffffffffffffffffffffffffffffffffffffffffffffffffffffffffff82612d3a565b612d7f8683612d3a565b95508019841693508086168417925050509392505050565b5f819050919050565b5f612dba612db5612db084611d0f565b612d97565b611d0f565b9050919050565b5f819050919050565b612dd383612da0565b612de7612ddf82612dc1565b848454612d46565b825550505050565b5f5f905090565b612dfe612def565b612e09818484612dca565b505050565b5f5b82811015612e2f57612e245f828401612df6565b600181019050612e10565b505050565b601f821115612e825782821115612e8157612e4e81612d19565b612e5783612d2b565b612e6085612d2b565b6020861015612e6d575f90505b808301612e7c82840382612e0e565b505050505b5b505050565b5f82821c905092915050565b5f612ea25f1984600802612e87565b1980831691505092915050565b5f612eba8383612e93565b9150826002028217905092915050565b612ed382611e1c565b67ffffffffffffffff811115612eec57612eeb612139565b5b612ef68254612a35565b612f01828285612e34565b5f60209050601f831160018114612f32575f8415612f20578287015190505b612f2a8582612eaf565b865550612f91565b601f198416612f4086612d19565b5f5b82811015612f6757848901518255600182019150602085019450602081019050612f42565b86831015612f845784890151612f80601f891682612e93565b8355505b6001600288020188555050505b505050505050565b5f6060820190508181035f830152612fb1818661203c565b9050612fc06020830185611d18565b612fcd6040830184611d18565b949350505050565b7f456c656374696f6e2068617320616c726561647920656e6465640000000000005f82015250565b5f613009601a8361202c565b915061301482612fd5565b602082019050919050565b5f6020820190508181035f83015261303681612ffd565b9050919050565b7f57616c6c657420616c72656164792072656769737465726564000000000000005f82015250565b5f61307160198361202c565b915061307c8261303d565b602082019050919050565b5f6020820190508181035f83015261309e81613065565b9050919050565b5f81905092915050565b5f6130b982611e1c565b6130c381856130a5565b93506130d3818560208601611e36565b80840191505092915050565b5f6130ea82846130af565b915081905092915050565b7f4d6174726963206e756d62657220616c726561647920726567697374657265645f8201527f20746f20616e6f746865722077616c6c65740000000000000000000000000000602082015250565b5f61314f60328361202c565b915061315a826130f5565b604082019050919050565b5f6020820190508181035f83015261317c81613143565b9050919050565b5f6020820190506131965f830184612457565b92915050565b7f43616e6e6f74206164642063616e6469646174657320616674657220656c65635f8201527f74696f6e20737461727473000000000000000000000000000000000000000000602082015250565b5f6131f6602b8361202c565b91506132018261319c565b604082019050919050565b5f6020820190508181035f830152613223816131ea565b9050919050565b5f6040820190508181035f830152613242818561203c565b90508181036020830152613256818461203c565b9050939250505056fea2646970667358221220fa033deb830bc30cc07140ac6c1ffdaad7953c1598811d0bcb62f371c4c42f0864736f6c63430008210033","linkReferences":{}},"methodIdentifiers":{"addCandidate(uint256,string,string)":"e6c62efc","admin()":"f851a440","candidates(uint256,uint256)":"7de14242","castVote(uint256,uint256)":"2c0a3f89","createElection(string,string,uint256,uint256)":"7ad36e84","electionCount()":"997d2830","elections(uint256)":"5e6fef01","getCandidates(uint256)":"3e39a7a5","getElection(uint256)":"9d710777","getElectionCount()":"213785a0","getVoterStatus(uint256,address)":"942f56bd","getWinner(uint256)":"4129b2c9","isElectionActive(uint256)":"6ee17f6f","isMatricRegistered(uint256,string)":"a24d592f","matricRegistered(uint256,bytes32)":"b98ea9d7","registerVoter(uint256,address,string)":"848cc37e","voters(uint256,address)":"9e319063"},"id":0}