{"abi":[{"type":"constructor","inputs":[{"name":"_voterNFT","type":"address","internalType":"address"}],"stateMutability":"nonpayable"},{"type":"function","name":"addCandidate","inputs":[{"name":"_electionId","type":"uint256","internalType":"uint256"},{"name":"_name","type":"string","internalType":"string"},{"name":"_position","type":"string","internalType":"string"}],"outputs":[],"stateMutability":"nonpayable"},{"type":"function","name":"admin","inputs":[],"outputs":[{"name":"","type":"address","internalType":"address"}],"stateMutability":"view"},{"type":"function","name":"candidates","inputs":[{"name":"","type":"uint256","internalType":"uint256"},{"name":"","type":"uint256","internalType":"uint256"}],"outputs":[{"name":"id","type":"uint256","internalType":"uint256"},{"name":"name","type":"string","internalType":"string"},{"name":"position","type":"string","internalType":"string"},{"name":"voteCount","type":"uint256","internalType":"uint256"}],"stateMutability":"view"},{"type":"function","name":"castVote","inputs":[{"name":"_electionId","type":"uint256","internalType":"uint256"},{"name":"_candidateId","type":"uint256","internalType":"uint256"}],"outputs":[],"stateMutability":"nonpayable"},{"type":"function","name":"createElection","inputs":[{"name":"_title","type":"string","internalType":"string"},{"name":"_description","type":"string","internalType":"string"},{"name":"_startTime","type":"uint256","internalType":"uint256"},{"name":"_endTime","type":"uint256","internalType":"uint256"}],"outputs":[],"stateMutability":"nonpayable"},{"type":"function","name":"electionCount","inputs":[],"outputs":[{"name":"","type":"uint256","internalType":"uint256"}],"stateMutability":"view"},{"type":"function","name":"elections","inputs":[{"name":"","type":"uint256","internalType":"uint256"}],"outputs":[{"name":"id","type":"uint256","internalType":"uint256"},{"name":"title","type":"string","internalType":"string"},{"name":"description","type":"string","internalType":"string"},{"name":"startTime","type":"uint256","internalType":"uint256"},{"name":"endTime","type":"uint256","internalType":"uint256"},{"name":"exists","type":"bool","internalType":"bool"},{"name":"candidateCount","type":"uint256","internalType":"uint256"},{"name":"voterCount","type":"uint256","internalType":"uint256"}],"stateMutability":"view"},{"type":"function","name":"getCandidate","inputs":[{"name":"_electionId","type":"uint256","internalType":"uint256"},{"name":"_candidateId","type":"uint256","internalType":"uint256"}],"outputs":[{"name":"","type":"tuple","internalType":"struct Voting.Candidate","components":[{"name":"id","type":"uint256","internalType":"uint256"},{"name":"name","type":"string","internalType":"string"},{"name":"position","type":"string","internalType":"string"},{"name":"voteCount","type":"uint256","internalType":"uint256"}]}],"stateMutability":"view"},{"type":"function","name":"getCandidates","inputs":[{"name":"_electionId","type":"uint256","internalType":"uint256"}],"outputs":[{"name":"","type":"tuple[]","internalType":"struct Voting.Candidate[]","components":[{"name":"id","type":"uint256","internalType":"uint256"},{"name":"name","type":"string","internalType":"string"},{"name":"position","type":"string","internalType":"string"},{"name":"voteCount","type":"uint256","internalType":"uint256"}]}],"stateMutability":"view"},{"type":"function","name":"getElection","inputs":[{"name":"_electionId","type":"uint256","internalType":"uint256"}],"outputs":[{"name":"","type":"tuple","internalType":"struct Voting.Election","components":[{"name":"id","type":"uint256","internalType":"uint256"},{"name":"title","type":"string","internalType":"string"},{"name":"description","type":"string","internalType":"string"},{"name":"startTime","type":"uint256","internalType":"uint256"},{"name":"endTime","type":"uint256","internalType":"uint256"},{"name":"exists","type":"bool","internalType":"bool"},{"name":"candidateCount","type":"uint256","internalType":"uint256"},{"name":"voterCount","type":"uint256","internalType":"uint256"}]}],"stateMutability":"view"},{"type":"function","name":"getElectionCount","inputs":[],"outputs":[{"name":"","type":"uint256","internalType":"uint256"}],"stateMutability":"view"},{"type":"function","name":"getVoterStatus","inputs":[{"name":"_electionId","type":"uint256","internalType":"uint256"},{"name":"_voter","type":"address","internalType":"address"}],"outputs":[{"name":"isRegistered","type":"bool","internalType":"bool"},{"name":"hasVoted","type":"bool","internalType":"bool"},{"name":"votedCandidateId","type":"uint256","internalType":"uint256"},{"name":"matricHash","type":"bytes32","internalType":"bytes32"}],"stateMutability":"view"},{"type":"function","name":"getWinner","inputs":[{"name":"_electionId","type":"uint256","internalType":"uint256"}],"outputs":[{"name":"winner","type":"tuple","internalType":"struct Voting.Candidate","components":[{"name":"id","type":"uint256","internalType":"uint256"},{"name":"name","type":"string","internalType":"string"},{"name":"position","type":"string","internalType":"string"},{"name":"voteCount","type":"uint256","internalType":"uint256"}]}],"stateMutability":"view"},{"type":"function","name":"isElectionActive","inputs":[{"name":"_electionId","type":"uint256","internalType":"uint256"}],"outputs":[{"name":"","type":"bool","internalType":"bool"}],"stateMutability":"view"},{"type":"function","name":"isMatricRegistered","inputs":[{"name":"_electionId","type":"uint256","internalType":"uint256"},{"name":"_matricNumber","type":"string","internalType":"string"}],"outputs":[{"name":"","type":"bool","internalType":"bool"}],"stateMutability":"view"},{"type":"function","name":"matricRegistered","inputs":[{"name":"","type":"uint256","internalType":"uint256"},{"name":"","type":"bytes32","internalType":"bytes32"}],"outputs":[{"name":"","type":"bool","internalType":"bool"}],"stateMutability":"view"},{"type":"function","name":"registerVoter","inputs":[{"name":"_electionId","type":"uint256","internalType":"uint256"},{"name":"_voter","type":"address","internalType":"address"},{"name":"_matricNumber","type":"string","internalType":"string"}],"outputs":[],"stateMutability":"nonpayable"},{"type":"function","name":"setNFTContract","inputs":[{"name":"_voterNFT","type":"address","internalType":"address"}],"outputs":[],"stateMutability":"nonpayable"},{"type":"function","name":"voterNFT","inputs":[],"outputs":[{"name":"","type":"address","internalType":"contract IVoterNFT"}],"stateMutability":"view"},{"type":"function","name":"voters","inputs":[{"name":"","type":"uint256","internalType":"uint256"},{"name":"","type":"address","internalType":"address"}],"outputs":[{"name":"isRegistered","type":"bool","internalType":"bool"},{"name":"hasVoted","type":"bool","internalType":"bool"},{"name":"votedCandidateId","type":"uint256","internalType":"uint256"},{"name":"matricHash","type":"bytes32","internalType":"bytes32"}],"stateMutability":"view"},{"type":"event","name":"CandidateAdded","inputs":[{"name":"electionId","type":"uint256","indexed":true,"internalType":"uint256"},{"name":"candidateId","type":"uint256","indexed":true,"internalType":"uint256"},{"name":"name","type":"string","indexed":false,"internalType":"string"},{"name":"position","type":"string","indexed":false,"internalType":"string"}],"anonymous":false},{"type":"event","name":"ElectionCreated","inputs":[{"name":"electionId","type":"uint256","indexed":true,"internalType":"uint256"},{"name":"title","type":"string","indexed":false,"internalType":"string"},{"name":"startTime","type":"uint256","indexed":false,"internalType":"uint256"},{"name":"endTime","type":"uint256","indexed":false,"internalType":"uint256"}],"anonymous":false},{"type":"event","name":"VoteCast","inputs":[{"name":"electionId","type":"uint256","indexed":true,"internalType":"uint256"},{"name":"candidateId","type":"uint256","indexed":true,"internalType":"uint256"},{"name":"voter","type":"address","indexed":true,"internalType":"address"}],"anonymous":false},{"type":"event","name":"VoterRegistered","inputs":[{"name":"electionId","type":"uint256","indexed":true,"internalType":"uint256"},{"name":"voter","type":"address","indexed":true,"internalType":"address"},{"name":"matricHash","type":"bytes32","indexed":false,"internalType":"bytes32"}],"anonymous":false}],"bytecode":{"object":"0x608060405234801561000f575f5ffd5b5060405161398538038061398583398181016040528101906100319190610114565b335f5f6101000a81548173ffffffffffffffffffffffffffffffffffffffff021916908373ffffffffffffffffffffffffffffffffffffffff1602179055508060025f6101000a81548173ffffffffffffffffffffffffffffffffffffffff021916908373ffffffffffffffffffffffffffffffffffffffff1602179055505061013f565b5f5ffd5b5f73ffffffffffffffffffffffffffffffffffffffff82169050919050565b5f6100e3826100ba565b9050919050565b6100f3816100d9565b81146100fd575f5ffd5b50565b5f8151905061010e816100ea565b92915050565b5f60208284031215610129576101286100b6565b5b5f61013684828501610100565b91505092915050565b6138398061014c5f395ff3fe608060405234801561000f575f5ffd5b506004361061012a575f3560e01c8063942f56bd116100ab578063a7ccabdf1161006f578063a7ccabdf146103ae578063b320e970146103ca578063b98ea9d7146103e8578063e6c62efc14610418578063f851a440146104345761012a565b8063942f56bd146102ca578063997d2830146102fd5780639d7107771461031b5780639e3190631461034b578063a24d592f1461037e5761012a565b80635e6fef01116100f25780635e6fef01146101f85780636ee17f6f1461022f5780637ad36e841461025f5780637de142421461027b578063848cc37e146102ae5761012a565b8063213785a01461012e5780632c0a3f891461014c5780633e39a7a5146101685780634129b2c9146101985780634bd46448146101c8575b5f5ffd5b610136610452565b6040516101439190612178565b60405180910390f35b610166600480360381019061016191906121cc565b61045b565b005b610182600480360381019061017d919061220a565b610803565b60405161018f91906123d6565b60405180910390f35b6101b260048036038101906101ad919061220a565b610a89565b6040516101bf919061245d565b60405180910390f35b6101e260048036038101906101dd91906121cc565b610d8b565b6040516101ef919061245d565b60405180910390f35b610212600480360381019061020d919061220a565b610fbd565b6040516102269897969594939291906124df565b60405180910390f35b6102496004803603810190610244919061220a565b611119565b6040516102569190612569565b60405180910390f35b610279600480360381019061027491906126ae565b6111bb565b005b610295600480360381019061029091906121cc565b6113f8565b6040516102a5949392919061274a565b60405180910390f35b6102c860048036038101906102c391906127f5565b61153b565b005b6102e460048036038101906102df9190612861565b61192e565b6040516102f494939291906128b7565b60405180910390f35b610305611a5a565b6040516103129190612178565b60405180910390f35b6103356004803603810190610330919061220a565b611a60565b60405161034291906129bd565b60405180910390f35b61036560048036038101906103609190612861565b611c59565b60405161037594939291906128b7565b60405180910390f35b610398600480360381019061039391906129dd565b611ca8565b6040516103a59190612569565b60405180910390f35b6103c860048036038101906103c39190612a37565b611d6b565b005b6103d2611e3c565b6040516103df9190612abd565b60405180910390f35b61040260048036038101906103fd9190612b00565b611e61565b60405161040f9190612569565b60405180910390f35b610432600480360381019061042d9190612b3e565b611e8b565b005b61043c6120d5565b6040516104499190612bd5565b60405180910390f35b5f600154905090565b8160035f8281526020019081526020015f206005015f9054906101000a900460ff166104bc576040517f08c379a00000000000000000000000000000000000000000000000000000000081526004016104b390612c38565b60405180910390fd5b8260035f8281526020019081526020015f2060030154421015610514576040517f08c379a000000000000000000000000000000000000000000000000000000000815260040161050b90612ca0565b60405180910390fd5b60035f8281526020019081526020015f206004015442111561056b576040517f08c379a000000000000000000000000000000000000000000000000000000000815260040161056290612d08565b60405180910390fd5b5f60055f8681526020019081526020015f205f3373ffffffffffffffffffffffffffffffffffffffff1673ffffffffffffffffffffffffffffffffffffffff1681526020019081526020015f209050805f015f9054906101000a900460ff16610609576040517f08c379a000000000000000000000000000000000000000000000000000000000815260040161060090612d96565b60405180910390fd5b805f0160019054906101000a900460ff161561065a576040517f08c379a000000000000000000000000000000000000000000000000000000000815260040161065190612dfe565b60405180910390fd5b5f8411801561067d575060035f8681526020019081526020015f20600601548411155b6106bc576040517f08c379a00000000000000000000000000000000000000000000000000000000081526004016106b390612e66565b60405180910390fd5b6001815f0160016101000a81548160ff02191690831515021790555083816001018190555060045f8681526020019081526020015f205f8581526020019081526020015f206003015f81548092919061071490612eb1565b91905055503373ffffffffffffffffffffffffffffffffffffffff1684867f7fe1d4e6b34e228b5dc059fcdc037c71b216fb2417f47c171e505144a5e4f5fc60405160405180910390a460025f9054906101000a900473ffffffffffffffffffffffffffffffffffffffff1673ffffffffffffffffffffffffffffffffffffffff1663065cfbab338760035f8a81526020019081526020015f206001016040518463ffffffff1660e01b81526004016107cf93929190612fe8565b5f604051808303815f87803b1580156107e6575f5ffd5b505af11580156107f8573d5f5f3e3d5ffd5b505050505050505050565b60608160035f8281526020019081526020015f206005015f9054906101000a900460ff16610866576040517f08c379a000000000000000000000000000000000000000000000000000000000815260040161085d90612c38565b60405180910390fd5b5f60035f8581526020019081526020015f206006015490505f8167ffffffffffffffff8111156108995761089861258a565b5b6040519080825280602002602001820160405280156108d257816020015b6108bf6120f9565b8152602001906001900390816108b75790505b5090505f600190505b828111610a7d5760045f8781526020019081526020015f205f8281526020019081526020015f206040518060800160405290815f820154815260200160018201805461092690612f25565b80601f016020809104026020016040519081016040528092919081815260200182805461095290612f25565b801561099d5780601f106109745761010080835404028352916020019161099d565b820191905f5260205f20905b81548152906001019060200180831161098057829003601f168201915b505050505081526020016002820180546109b690612f25565b80601f01602080910402602001604051908101604052809291908181526020018280546109e290612f25565b8015610a2d5780601f10610a0457610100808354040283529160200191610a2d565b820191905f5260205f20905b815481529060010190602001808311610a1057829003601f168201915b5050505050815260200160038201548152505082600183610a4e9190613024565b81518110610a5f57610a5e613057565b5b60200260200101819052508080610a7590612eb1565b9150506108db565b50809350505050919050565b610a916120f9565b8160035f8281526020019081526020015f206005015f9054906101000a900460ff16610af2576040517f08c379a0000000000000000000000000000000000000000000000000000000008152600401610ae990612c38565b60405180910390fd5b8260035f8281526020019081526020015f20600401544211610b49576040517f08c379a0000000000000000000000000000000000000000000000000000000008152600401610b40906130ce565b60405180910390fd5b5f5f90505f5f90505f60035f8881526020019081526020015f206006015490505f600190505b818111610bde578360045f8a81526020019081526020015f205f8381526020019081526020015f20600301541115610bcb5760045f8981526020019081526020015f205f8281526020019081526020015f206003015493508092505b8080610bd690612eb1565b915050610b6f565b505f8203610c21576040517f08c379a0000000000000000000000000000000000000000000000000000000008152600401610c1890613136565b60405180910390fd5b60045f8881526020019081526020015f205f8381526020019081526020015f206040518060800160405290815f8201548152602001600182018054610c6590612f25565b80601f0160208091040260200160405190810160405280929190818152602001828054610c9190612f25565b8015610cdc5780601f10610cb357610100808354040283529160200191610cdc565b820191905f5260205f20905b815481529060010190602001808311610cbf57829003601f168201915b50505050508152602001600282018054610cf590612f25565b80601f0160208091040260200160405190810160405280929190818152602001828054610d2190612f25565b8015610d6c5780601f10610d4357610100808354040283529160200191610d6c565b820191905f5260205f20905b815481529060010190602001808311610d4f57829003601f168201915b5050505050815260200160038201548152505095505050505050919050565b610d936120f9565b8260035f8281526020019081526020015f206005015f9054906101000a900460ff16610df4576040517f08c379a0000000000000000000000000000000000000000000000000000000008152600401610deb90612c38565b60405180910390fd5b5f83118015610e17575060035f8581526020019081526020015f20600601548311155b610e56576040517f08c379a0000000000000000000000000000000000000000000000000000000008152600401610e4d90612e66565b60405180910390fd5b60045f8581526020019081526020015f205f8481526020019081526020015f206040518060800160405290815f8201548152602001600182018054610e9a90612f25565b80601f0160208091040260200160405190810160405280929190818152602001828054610ec690612f25565b8015610f115780601f10610ee857610100808354040283529160200191610f11565b820191905f5260205f20905b815481529060010190602001808311610ef457829003601f168201915b50505050508152602001600282018054610f2a90612f25565b80601f0160208091040260200160405190810160405280929190818152602001828054610f5690612f25565b8015610fa15780601f10610f7857610100808354040283529160200191610fa1565b820191905f5260205f20905b815481529060010190602001808311610f8457829003601f168201915b5050505050815260200160038201548152505091505092915050565b6003602052805f5260405f205f91509050805f015490806001018054610fe290612f25565b80601f016020809104026020016040519081016040528092919081815260200182805461100e90612f25565b80156110595780601f1061103057610100808354040283529160200191611059565b820191905f5260205f20905b81548152906001019060200180831161103c57829003601f168201915b50505050509080600201805461106e90612f25565b80601f016020809104026020016040519081016040528092919081815260200182805461109a90612f25565b80156110e55780601f106110bc576101008083540402835291602001916110e5565b820191905f5260205f20905b8154815290600101906020018083116110c857829003601f168201915b505050505090806003015490806004015490806005015f9054906101000a900460ff16908060060154908060070154905088565b5f8160035f8281526020019081526020015f206005015f9054906101000a900460ff1661117b576040517f08c379a000000000000000000000000000000000000000000000000000000000815260040161117290612c38565b60405180910390fd5b60035f8481526020019081526020015f206003015442101580156111b3575060035f8481526020019081526020015f20600401544211155b915050919050565b5f5f9054906101000a900473ffffffffffffffffffffffffffffffffffffffff1673ffffffffffffffffffffffffffffffffffffffff163373ffffffffffffffffffffffffffffffffffffffff1614611249576040517f08c379a0000000000000000000000000000000000000000000000000000000008152600401611240906131c4565b60405180910390fd5b80821061128b576040517f08c379a000000000000000000000000000000000000000000000000000000000815260040161128290613252565b60405180910390fd5b4281116112cd576040517f08c379a00000000000000000000000000000000000000000000000000000000081526004016112c4906132ba565b60405180910390fd5b60015f8154809291906112df90612eb1565b919050555060405180610100016040528060015481526020018581526020018481526020018381526020018281526020016001151581526020015f81526020015f81525060035f60015481526020019081526020015f205f820151815f01556020820151816001019081611353919061346e565b506040820151816002019081611369919061346e565b50606082015181600301556080820151816004015560a0820151816005015f6101000a81548160ff02191690831515021790555060c0820151816006015560e082015181600701559050506001547fe7a0aae5d733e07e246dea86213a1ac1b0aa8554bde889bb75c12752f44e53d98584846040516113ea9392919061353d565b60405180910390a250505050565b6004602052815f5260405f20602052805f5260405f205f9150915050805f01549080600101805461142890612f25565b80601f016020809104026020016040519081016040528092919081815260200182805461145490612f25565b801561149f5780601f106114765761010080835404028352916020019161149f565b820191905f5260205f20905b81548152906001019060200180831161148257829003601f168201915b5050505050908060020180546114b490612f25565b80601f01602080910402602001604051908101604052809291908181526020018280546114e090612f25565b801561152b5780601f106115025761010080835404028352916020019161152b565b820191905f5260205f20905b81548152906001019060200180831161150e57829003601f168201915b5050505050908060030154905084565b5f5f9054906101000a900473ffffffffffffffffffffffffffffffffffffffff1673ffffffffffffffffffffffffffffffffffffffff163373ffffffffffffffffffffffffffffffffffffffff16146115c9576040517f08c379a00000000000000000000000000000000000000000000000000000000081526004016115c0906131c4565b60405180910390fd5b8260035f8281526020019081526020015f206005015f9054906101000a900460ff1661162a576040517f08c379a000000000000000000000000000000000000000000000000000000000815260040161162190612c38565b60405180910390fd5b60035f8581526020019081526020015f20600401544210611680576040517f08c379a0000000000000000000000000000000000000000000000000000000008152600401611677906135c3565b60405180910390fd5b60055f8581526020019081526020015f205f8473ffffffffffffffffffffffffffffffffffffffff1673ffffffffffffffffffffffffffffffffffffffff1681526020019081526020015f205f015f9054906101000a900460ff161561171b576040517f08c379a00000000000000000000000000000000000000000000000000000000081526004016117129061362b565b60405180910390fd5b5f8260405160200161172d9190613683565b60405160208183030381529060405280519060200120905060065f8681526020019081526020015f205f8281526020019081526020015f205f9054906101000a900460ff16156117b2576040517f08c379a00000000000000000000000000000000000000000000000000000000081526004016117a990613709565b60405180910390fd5b60405180608001604052806001151581526020015f151581526020015f81526020018281525060055f8781526020019081526020015f205f8673ffffffffffffffffffffffffffffffffffffffff1673ffffffffffffffffffffffffffffffffffffffff1681526020019081526020015f205f820151815f015f6101000a81548160ff0219169083151502179055506020820151815f0160016101000a81548160ff0219169083151502179055506040820151816001015560608201518160020155905050600160065f8781526020019081526020015f205f8381526020019081526020015f205f6101000a81548160ff02191690831515021790555060035f8681526020019081526020015f206007015f8154809291906118d390612eb1565b91905055508373ffffffffffffffffffffffffffffffffffffffff16857fac80ab55aa31256e858d3769a6d44ecaa5b6fe5b9e301db4ffe6cb934811db968360405161191f9190613727565b60405180910390a35050505050565b5f5f5f5f8560035f8281526020019081526020015f206005015f9054906101000a900460ff16611993576040517f08c379a000000000000000000000000000000000000000000000000000000000815260040161198a90612c38565b60405180910390fd5b5f60055f8981526020019081526020015f205f8873ffffffffffffffffffffffffffffffffffffffff1673ffffffffffffffffffffffffffffffffffffffff1681526020019081526020015f206040518060800160405290815f82015f9054906101000a900460ff161515151581526020015f820160019054906101000a900460ff16151515158152602001600182015481526020016002820154815250509050805f01518160200151826040015183606001519550955095509550505092959194509250565b60015481565b611a6861211f565b8160035f8281526020019081526020015f206005015f9054906101000a900460ff16611ac9576040517f08c379a0000000000000000000000000000000000000000000000000000000008152600401611ac090612c38565b60405180910390fd5b60035f8481526020019081526020015f20604051806101000160405290815f8201548152602001600182018054611aff90612f25565b80601f0160208091040260200160405190810160405280929190818152602001828054611b2b90612f25565b8015611b765780601f10611b4d57610100808354040283529160200191611b76565b820191905f5260205f20905b815481529060010190602001808311611b5957829003601f168201915b50505050508152602001600282018054611b8f90612f25565b80601f0160208091040260200160405190810160405280929190818152602001828054611bbb90612f25565b8015611c065780601f10611bdd57610100808354040283529160200191611c06565b820191905f5260205f20905b815481529060010190602001808311611be957829003601f168201915b505050505081526020016003820154815260200160048201548152602001600582015f9054906101000a900460ff1615151515815260200160068201548152602001600782015481525050915050919050565b6005602052815f5260405f20602052805f5260405f205f9150915050805f015f9054906101000a900460ff1690805f0160019054906101000a900460ff16908060010154908060020154905084565b5f8260035f8281526020019081526020015f206005015f9054906101000a900460ff16611d0a576040517f08c379a0000000000000000000000000000000000000000000000000000000008152600401611d0190612c38565b60405180910390fd5b5f83604051602001611d1c9190613683565b60405160208183030381529060405280519060200120905060065f8681526020019081526020015f205f8281526020019081526020015f205f9054906101000a900460ff169250505092915050565b5f5f9054906101000a900473ffffffffffffffffffffffffffffffffffffffff1673ffffffffffffffffffffffffffffffffffffffff163373ffffffffffffffffffffffffffffffffffffffff1614611df9576040517f08c379a0000000000000000000000000000000000000000000000000000000008152600401611df0906131c4565b60405180910390fd5b8060025f6101000a81548173ffffffffffffffffffffffffffffffffffffffff021916908373ffffffffffffffffffffffffffffffffffffffff16021790555050565b60025f9054906101000a900473ffffffffffffffffffffffffffffffffffffffff1681565b6006602052815f5260405f20602052805f5260405f205f915091509054906101000a900460ff1681565b5f5f9054906101000a900473ffffffffffffffffffffffffffffffffffffffff1673ffffffffffffffffffffffffffffffffffffffff163373ffffffffffffffffffffffffffffffffffffffff1614611f19576040517f08c379a0000000000000000000000000000000000000000000000000000000008152600401611f10906131c4565b60405180910390fd5b8260035f8281526020019081526020015f206005015f9054906101000a900460ff16611f7a576040517f08c379a0000000000000000000000000000000000000000000000000000000008152600401611f7190612c38565b60405180910390fd5b60035f8581526020019081526020015f20600301544210611fd0576040517f08c379a0000000000000000000000000000000000000000000000000000000008152600401611fc7906137b0565b60405180910390fd5b60035f8581526020019081526020015f206006015f815480929190611ff490612eb1565b91905055505f60035f8681526020019081526020015f2060060154905060405180608001604052808281526020018581526020018481526020015f81525060045f8781526020019081526020015f205f8381526020019081526020015f205f820151815f0155602082015181600101908161206f919061346e565b506040820151816002019081612085919061346e565b506060820151816003015590505080857f503cfceb0fb2178c5fb47ff394c816e4075abc8066c3dcb16d08a76847ee6e1686866040516120c69291906137ce565b60405180910390a35050505050565b5f5f9054906101000a900473ffffffffffffffffffffffffffffffffffffffff1681565b60405180608001604052805f815260200160608152602001606081526020015f81525090565b6040518061010001604052805f815260200160608152602001606081526020015f81526020015f81526020015f151581526020015f81526020015f81525090565b5f819050919050565b61217281612160565b82525050565b5f60208201905061218b5f830184612169565b92915050565b5f604051905090565b5f5ffd5b5f5ffd5b6121ab81612160565b81146121b5575f5ffd5b50565b5f813590506121c6816121a2565b92915050565b5f5f604083850312156121e2576121e161219a565b5b5f6121ef858286016121b8565b9250506020612200858286016121b8565b9150509250929050565b5f6020828403121561221f5761221e61219a565b5b5f61222c848285016121b8565b91505092915050565b5f81519050919050565b5f82825260208201905092915050565b5f819050602082019050919050565b61226781612160565b82525050565b5f81519050919050565b5f82825260208201905092915050565b8281835e5f83830152505050565b5f601f19601f8301169050919050565b5f6122af8261226d565b6122b98185612277565b93506122c9818560208601612287565b6122d281612295565b840191505092915050565b5f608083015f8301516122f25f86018261225e565b506020830151848203602086015261230a82826122a5565b9150506040830151848203604086015261232482826122a5565b9150506060830151612339606086018261225e565b508091505092915050565b5f61234f83836122dd565b905092915050565b5f602082019050919050565b5f61236d82612235565b612377818561223f565b9350836020820285016123898561224f565b805f5b858110156123c457848403895281516123a58582612344565b94506123b083612357565b925060208a0199505060018101905061238c565b50829750879550505050505092915050565b5f6020820190508181035f8301526123ee8184612363565b905092915050565b5f608083015f83015161240b5f86018261225e565b506020830151848203602086015261242382826122a5565b9150506040830151848203604086015261243d82826122a5565b9150506060830151612452606086018261225e565b508091505092915050565b5f6020820190508181035f83015261247581846123f6565b905092915050565b5f82825260208201905092915050565b5f6124978261226d565b6124a1818561247d565b93506124b1818560208601612287565b6124ba81612295565b840191505092915050565b5f8115159050919050565b6124d9816124c5565b82525050565b5f610100820190506124f35f83018b612169565b8181036020830152612505818a61248d565b90508181036040830152612519818961248d565b90506125286060830188612169565b6125356080830187612169565b61254260a08301866124d0565b61254f60c0830185612169565b61255c60e0830184612169565b9998505050505050505050565b5f60208201905061257c5f8301846124d0565b92915050565b5f5ffd5b5f5ffd5b7f4e487b71000000000000000000000000000000000000000000000000000000005f52604160045260245ffd5b6125c082612295565b810181811067ffffffffffffffff821117156125df576125de61258a565b5b80604052505050565b5f6125f1612191565b90506125fd82826125b7565b919050565b5f67ffffffffffffffff82111561261c5761261b61258a565b5b61262582612295565b9050602081019050919050565b828183375f83830152505050565b5f61265261264d84612602565b6125e8565b90508281526020810184848401111561266e5761266d612586565b5b612679848285612632565b509392505050565b5f82601f83011261269557612694612582565b5b81356126a5848260208601612640565b91505092915050565b5f5f5f5f608085870312156126c6576126c561219a565b5b5f85013567ffffffffffffffff8111156126e3576126e261219e565b5b6126ef87828801612681565b945050602085013567ffffffffffffffff8111156127105761270f61219e565b5b61271c87828801612681565b935050604061272d878288016121b8565b925050606061273e878288016121b8565b91505092959194509250565b5f60808201905061275d5f830187612169565b818103602083015261276f818661248d565b90508181036040830152612783818561248d565b90506127926060830184612169565b95945050505050565b5f73ffffffffffffffffffffffffffffffffffffffff82169050919050565b5f6127c48261279b565b9050919050565b6127d4816127ba565b81146127de575f5ffd5b50565b5f813590506127ef816127cb565b92915050565b5f5f5f6060848603121561280c5761280b61219a565b5b5f612819868287016121b8565b935050602061282a868287016127e1565b925050604084013567ffffffffffffffff81111561284b5761284a61219e565b5b61285786828701612681565b9150509250925092565b5f5f604083850312156128775761287661219a565b5b5f612884858286016121b8565b9250506020612895858286016127e1565b9150509250929050565b5f819050919050565b6128b18161289f565b82525050565b5f6080820190506128ca5f8301876124d0565b6128d760208301866124d0565b6128e46040830185612169565b6128f160608301846128a8565b95945050505050565b612903816124c5565b82525050565b5f61010083015f83015161291f5f86018261225e565b506020830151848203602086015261293782826122a5565b9150506040830151848203604086015261295182826122a5565b9150506060830151612966606086018261225e565b506080830151612979608086018261225e565b5060a083015161298c60a08601826128fa565b5060c083015161299f60c086018261225e565b5060e08301516129b260e086018261225e565b508091505092915050565b5f6020820190508181035f8301526129d58184612909565b905092915050565b5f5f604083850312156129f3576129f261219a565b5b5f612a00858286016121b8565b925050602083013567ffffffffffffffff811115612a2157612a2061219e565b5b612a2d85828601612681565b9150509250929050565b5f60208284031215612a4c57612a4b61219a565b5b5f612a59848285016127e1565b91505092915050565b5f819050919050565b5f612a85612a80612a7b8461279b565b612a62565b61279b565b9050919050565b5f612a9682612a6b565b9050919050565b5f612aa782612a8c565b9050919050565b612ab781612a9d565b82525050565b5f602082019050612ad05f830184612aae565b92915050565b612adf8161289f565b8114612ae9575f5ffd5b50565b5f81359050612afa81612ad6565b92915050565b5f5f60408385031215612b1657612b1561219a565b5b5f612b23858286016121b8565b9250506020612b3485828601612aec565b9150509250929050565b5f5f5f60608486031215612b5557612b5461219a565b5b5f612b62868287016121b8565b935050602084013567ffffffffffffffff811115612b8357612b8261219e565b5b612b8f86828701612681565b925050604084013567ffffffffffffffff811115612bb057612baf61219e565b5b612bbc86828701612681565b9150509250925092565b612bcf816127ba565b82525050565b5f602082019050612be85f830184612bc6565b92915050565b7f456c656374696f6e20646f6573206e6f742065786973740000000000000000005f82015250565b5f612c2260178361247d565b9150612c2d82612bee565b602082019050919050565b5f6020820190508181035f830152612c4f81612c16565b9050919050565b7f456c656374696f6e20686173206e6f74207374617274656420796574000000005f82015250565b5f612c8a601c8361247d565b9150612c9582612c56565b602082019050919050565b5f6020820190508181035f830152612cb781612c7e565b9050919050565b7f456c656374696f6e2068617320656e64656400000000000000000000000000005f82015250565b5f612cf260128361247d565b9150612cfd82612cbe565b602082019050919050565b5f6020820190508181035f830152612d1f81612ce6565b9050919050565b7f596f7520617265206e6f74207265676973746572656420746f20766f746520695f8201527f6e207468697320656c656374696f6e0000000000000000000000000000000000602082015250565b5f612d80602f8361247d565b9150612d8b82612d26565b604082019050919050565b5f6020820190508181035f830152612dad81612d74565b9050919050565b7f596f75206861766520616c726561647920766f746564000000000000000000005f82015250565b5f612de860168361247d565b9150612df382612db4565b602082019050919050565b5f6020820190508181035f830152612e1581612ddc565b9050919050565b7f496e76616c69642063616e6469646174650000000000000000000000000000005f82015250565b5f612e5060118361247d565b9150612e5b82612e1c565b602082019050919050565b5f6020820190508181035f830152612e7d81612e44565b9050919050565b7f4e487b71000000000000000000000000000000000000000000000000000000005f52601160045260245ffd5b5f612ebb82612160565b91507fffffffffffffffffffffffffffffffffffffffffffffffffffffffffffffffff8203612eed57612eec612e84565b5b600182019050919050565b7f4e487b71000000000000000000000000000000000000000000000000000000005f52602260045260245ffd5b5f6002820490506001821680612f3c57607f821691505b602082108103612f4f57612f4e612ef8565b5b50919050565b5f819050815f5260205f209050919050565b5f8154612f7381612f25565b612f7d818661247d565b9450600182165f8114612f975760018114612fad57612fdf565b60ff198316865281151560200286019350612fdf565b612fb685612f55565b5f5b83811015612fd757815481890152600182019150602081019050612fb8565b808801955050505b50505092915050565b5f606082019050612ffb5f830186612bc6565b6130086020830185612169565b818103604083015261301a8184612f67565b9050949350505050565b5f61302e82612160565b915061303983612160565b925082820390508181111561305157613050612e84565b5b92915050565b7f4e487b71000000000000000000000000000000000000000000000000000000005f52603260045260245ffd5b7f456c656374696f6e206973207374696c6c206f6e676f696e67000000000000005f82015250565b5f6130b860198361247d565b91506130c382613084565b602082019050919050565b5f6020820190508181035f8301526130e5816130ac565b9050919050565b7f4e6f20766f7465732068617665206265656e20636173740000000000000000005f82015250565b5f61312060178361247d565b915061312b826130ec565b602082019050919050565b5f6020820190508181035f83015261314d81613114565b9050919050565b7f4f6e6c792061646d696e2063616e20706572666f726d207468697320616374695f8201527f6f6e000000000000000000000000000000000000000000000000000000000000602082015250565b5f6131ae60228361247d565b91506131b982613154565b604082019050919050565b5f6020820190508181035f8301526131db816131a2565b9050919050565b7f53746172742074696d65206d757374206265206265666f726520656e642074695f8201527f6d65000000000000000000000000000000000000000000000000000000000000602082015250565b5f61323c60228361247d565b9150613247826131e2565b604082019050919050565b5f6020820190508181035f83015261326981613230565b9050919050565b7f456e642074696d65206d75737420626520696e207468652066757475726500005f82015250565b5f6132a4601e8361247d565b91506132af82613270565b602082019050919050565b5f6020820190508181035f8301526132d181613298565b9050919050565b5f6020601f8301049050919050565b5f82821b905092915050565b5f600883026133227fffffffffffffffffffffffffffffffffffffffffffffffffffffffffffffffff826132e7565b61332c86836132e7565b95508019841693508086168417925050509392505050565b5f61335e61335961335484612160565b612a62565b612160565b9050919050565b5f819050919050565b61337783613344565b61338b61338382613365565b8484546132f3565b825550505050565b5f5f905090565b6133a2613393565b6133ad81848461336e565b505050565b5f5b828110156133d3576133c85f82840161339a565b6001810190506133b4565b505050565b601f8211156134265782821115613425576133f281612f55565b6133fb836132d8565b613404856132d8565b6020861015613411575f90505b808301613420828403826133b2565b505050505b5b505050565b5f82821c905092915050565b5f6134465f198460080261342b565b1980831691505092915050565b5f61345e8383613437565b9150826002028217905092915050565b6134778261226d565b67ffffffffffffffff8111156134905761348f61258a565b5b61349a8254612f25565b6134a58282856133d8565b5f60209050601f8311600181146134d6575f84156134c4578287015190505b6134ce8582613453565b865550613535565b601f1984166134e486612f55565b5f5b8281101561350b578489015182556001820191506020850194506020810190506134e6565b868310156135285784890151613524601f891682613437565b8355505b6001600288020188555050505b505050505050565b5f6060820190508181035f830152613555818661248d565b90506135646020830185612169565b6135716040830184612169565b949350505050565b7f456c656374696f6e2068617320616c726561647920656e6465640000000000005f82015250565b5f6135ad601a8361247d565b91506135b882613579565b602082019050919050565b5f6020820190508181035f8301526135da816135a1565b9050919050565b7f57616c6c657420616c72656164792072656769737465726564000000000000005f82015250565b5f61361560198361247d565b9150613620826135e1565b602082019050919050565b5f6020820190508181035f83015261364281613609565b9050919050565b5f81905092915050565b5f61365d8261226d565b6136678185613649565b9350613677818560208601612287565b80840191505092915050565b5f61368e8284613653565b915081905092915050565b7f4d6174726963206e756d62657220616c726561647920726567697374657265645f8201527f20746f20616e6f746865722077616c6c65740000000000000000000000000000602082015250565b5f6136f360328361247d565b91506136fe82613699565b604082019050919050565b5f6020820190508181035f830152613720816136e7565b9050919050565b5f60208201905061373a5f8301846128a8565b92915050565b7f43616e6e6f74206164642063616e6469646174657320616674657220656c65635f8201527f74696f6e20737461727473000000000000000000000000000000000000000000602082015250565b5f61379a602b8361247d565b91506137a582613740565b604082019050919050565b5f6020820190508181035f8301526137c78161378e565b9050919050565b5f6040820190508181035f8301526137e6818561248d565b905081810360208301526137fa818461248d565b9050939250505056fea26469706673582212203f88878232c46dae3040227099901c0f429a6ba99a399f14a7b7f9ed4cd9132a64736f6c63430008210033","linkReferences":{}},"methodIdentifiers":{"addCandidate(uint256,string,string)":"e6c62efc","admin()":"f851a440","candidates(uint256,uint256)":"7de14242","castVote(uint256,uint256)":"2c0a3f89","createElection(string,string,uint256,uint256)":"7ad36e84","electionCount()":"997d2830","elections(uint256)":"5e6fef01","getCandidate(uint256,uint256)":"4bd46448","getCandidates(uint256)":"3e39a7a5","getElection(uint256)":"9d710777","getElectionCount()":"213785a0","getVoterStatus(uint256,address)":"942f56bd","getWinner(uint256)":"4129b2c9","isElectionActive(uint256)":"6ee17f6f","isMatricRegistered(uint256,string)":"a24d592f","matricRegistered(uint256,bytes32)":"b98ea9d7","registerVoter(uint256,address,string)":"848cc37e","setNFTContract(address)":"a7ccabdf","voterNFT()":"b320e970","voters(uint256,address)":"9e319063"},"id":20}